:20F000002DE9F0470F460446ADF1200D00F0A4F98F4D2068286060686860A068A8608D484B
:20F0200080478D48296801608C4CC46069684160A968816004F1C001016189488047894861
:20F040002968016069684160A968816004F11801C16004F5DA7404617FB397F820008DF819
:20F060001C0097F821608DF81D6007A804F008FD786A08B17C490160B86A08B17B490160F9
:20F080007B483978017079784170B9787E688170F9784660C170BC688460FA6AC261FB68A7
:20F0A000C36079694161B969FE698161306800B971487049486000274F70704C7049502008
:20F0C000621C04F110030DF01FFC002700B101270026381C0BD005200DF0CCFB0C270820F9
:20F0E000ADF818002968ADF81A7006A8884768688047644F824604A904227E7030463E701F
:20F100000BF044FB04984FF00808B0F5801F0CD020B90DF015FC0BF023FD08E00BF0F6FCD3
:20F120000BF014FD0420788001E00DF009FC574FA66055487E80B146C0F8009001261420E3
:20F140003E700DF00DFBFF211422A0620BF068FAE01CFF2102220BF063FA14200DF000FB83
:20F160004B4908600868142249460BF059FA484609F0FEF930460BF0FDF846480188FF29ED
:20F1800006D1022101807822001D49460BF048FA032004F077FC042002F00BF9052006F0B2
:20F1A000A9FC062003F0C3F9072003F0BBFB3A4E86F8008006F1240002F05FFA0CF064F8C1
:20F1C000363605200A2132460BF026FB38B14846C0F10901401C06F8011B0A28F8DB2F48BB
:20F1E000092749460DF11E0205AB077010200DF08BFBA06A9DF81E1041729DF81E10C174E0
:20F200000A309DF81E107F1E00F8011BF9D10DF0ADFB60612968ADF800801420ADF802007F
:20F22000684688471527ADF808800198ADF80A702968A06102A888470398A968801EE0619A
:20F24000504688470DF068FC08B0BDE8F087C04648440020014C01102C4F002090D3010005
:20F2600001500010E8480020C5C701005DC80100F445002048470020D7270100504700206C
:20F28000E5C80100044800204444002000480020544400207C4700200848002004440020D1
:20F2A00000F05AB800BF00BF04F0EABB00BF00BF0DF02ABB00BF00BF0DF0DCBA00BF00BF46
:20F2C0000BF064BA00BF00BF0DF03ABB00BF00BF0BF046BC00BF00BF0BF018BC00BF00BF5F
:20F2E0000BF034BC00BF00BF0DF03ABA00BF00BF0BF096B900BF00BF09F03AB900BF00BF04
:20F300000BF038B800BF00BF04F0BCBB00BF00BF02F04FB800BF00BF06F0ECBB00BF00BF09
:20F3200003F005B900BF00BF03F0FCBA00BF00BF02F0A3B900BF00BF0BF0A6BF00BF00BFCD
:18F340000BF06ABA00BF00BF0DF010BB00BF00BF0DF0E2BB00BF00BFBA
:20F358001448B0B5B0F1FF3F01D00DF09BFD124D1248A84210D01248124CA0420CD0001B7B
:20F37800C71054F8040B10F8011B55F8212054F8041B90477F1EF4D103F0C3FA0A4D0B4C8F
:20F39800A54205D002E054F8040B8047A542FAD1B0BDC046FFFFFFFFC8DA0100D4DA010022
:20F3B800E4DA0100D4DA0100000000000000000030B502FB01F403FB00444FF00005E2FB8D
:20F3D80000542146284630BD002A4AD05FEA000C8B071CD1830722D1102A08D370B4103AE7
:20F3F80078C978C0103AFBD270BC103238D0042A2CD3082A05D30C2A24BF08C908C008C935
:20F4180008C008C908C092072AD0920F22E00B780370491C401C521E22D08B07F7D1C30700
:20F4380014D18307D8D0121F12D308C903801B0C4380001D121FF8D20AE008C903701B0ADE
:20F4580043701B0A83701B0AC370001D121FF4D2121D05D00B780370491C401C521EF9D168
:20F4780060467047002213460A46194671B510F0030F0BD0002A82BF00F8011BB2F10102B5
:20F4980010F0030FF6D1002A08BF71BD11F0FF0141EA0121042A18D341EA0141082A0FD374
:20F4B8000E46102A08D30C460D46B2F10F0312F00F0272C0103BFCD812F0080F18BF42C01B
:20F4D80012F0040F18BF40F8041B12F0020F18BF20F8021B12F0010F18BF017071BD2DE914
:20F4F800F0411C4615468C4208BF854282BF00230022E5E0002C08BF002D0AD100290EBF6E
:20F5180000286FF000006FF0000100F0E1F8BDE8F0815FF000085FF0000E002C08BF8D4297
:20F538009CBF2C1C0025070C47EA01470E0CB44208BFBD429EBF5FEA044444EA15445FEACB
:20F558000545070A47EA01670E0AB44208BFBD429EBF5FEA042444EA15645FEA0525470894
:20F5780047EAC1774E08B44208BFBD4200F29380870847EA81778E08B44208BFBD427CD895
:20F59800C70847EA4177CE08B44208BFBD4266D8070947EA01770E09B44208BFBD4250D817
:20F5B800470947EAC1674E09B44208BFBD423AD8870947EA81678E09B44208BFBD4224D86D
:20F5D800C70947EA4167CE09B44208BFBD420DD8E60146EA5566EF01B14208BFB84201D3A8
:20F5F800C01BB14158EB08085EEB0E0EA60146EA95664FEA8517B14208BFB84201D3C01B64
:20F61800B14158EB08084EEB0E0E660146EAD5666F01B14208BFB84201D3C01BB14158EB5E
:20F6380008084EEB0E0E260146EA15762F01B14208BFB84201D3C01BB14158EB08085EEB4A
:20F658000E0EE60046EA5576EF00B14208BFB84201D3C01BB14158EB08084EEB0E0EA60003
:20F6780046EA9576AF00B14208BFB84201D3C01BB14158EB08084EEB0E0E660046EAD576AA
:20F698006F00B14208BFB84201D3C01BB14158EB08085EEB0E0EA14208BFA84201D3401B13
:20F6B800A14158EB08085EEB0E0EA34208BFAA423EBF2D0A45EA0465240A89D37346424669
:20F6D8001E4617460B46024631463846BDE8F081704770476D490860704780B50B460021C3
:20F6F800009101226A4900F0BAF802BD80B50B461988172904DB0022009203226549F2E784
:20F71800022002BD38B50D460446A878012818BF02280DD1288800281CBF6868002807D0BC
:20F7380002210AF05DFF00902B4605225A4931E0022032BD38B500F01EF81CBF6868002885
:20F7580006D000F036F800902B460722534921E0022032BD38B500F00EF81CBF686800280F
:20F7780007D002210AF03CFF00902B4609224C4910E0022032BD0D46044628880028704754
:20F7980038B500F024F808B100F013F800902B460B224449204600F062F832BD38B500F06D
:20F7B80016F808B100F005F800902B460D223E49F0E701210AF014BF38B500F008F808B16A
:20F7D800FFF7F7FF00902B460F223849E2E70D4604466868704738B5FFF7CDFF1CBF68682B
:20F7F800002807D002210AF0FBFE00902B4611222F49CFE7022032BD80B50021009100235F
:20F81800132270E738B50D460446A86810B105210AF0E6FE00902B4617222649BAE780B566
:20F8380000210091002319225DE738B5FFF7CFFF10B103210AF0D4FE00902B461B2209E0D3
:20F8580038B5FFF7C4FF10B103210AF0C9FE00902B461D221849204600F04BFA32BDF8B56C
:20F8780004460698009015461E46204600F041FA070009D10548026832B1012D04BF35788F
:20F898006D1CE9B2204690473846F2BD1843002031F900006DF900009FF9000053FA0000D2
:20F8B800E9FA000029FB0000A3FB0000DDFB0000E3FB00004DFC0000C1FC0000F8B50646D6
:20F8D8000D46B48934B3B2681778380610D50C2C20DD0C3CA4B210190090234670880121BE
:20F8F80005F0C6F810B90121297003E0022000E000202870B80900F00100687007F03F0755
:20F91800601EA880AF7080B208B1B068401CA8600020F2BD0120F2BD0A7802704A8842708C
:20F938004A88120A827009791AE104290AD1017811708378417801EB03215180C078107102
:20F95800002070470420704705E0022B00D1D7E00420704700BF0A8802700988090A417050
:20F9780002207047022906D10178407801EB002111800020704704207047E8E0042B00D14B
:20F99800F6E0042070478A7802708878098801280CBF0420122048431EE110B50B001CD009
:20F9B8004B1E017801299BB207D15C0803EB9474A408B3EB840110D108E002290DD11224CD
:20F9D80093FBF4F4122101FB143333B9A1B221B110F8013B9370148041E0042010BD10B560
:20F9F8000C46022200F04BF8001D611D0AF00EFE2089801D80B210BD70B51E46052E154649
:20FA180019DD049C2878697800EB012020800222A878E97800EB01206080291D0220207181
:20FA3800601D0AF0F3FDB01F208180B200B1A81DE060002070BD042070BD08888004000C31
:20FA5800704710B54C0801EB94739B08B1EB830303D1890801D0118001E0042010BD5060BD
:20FA7800002010BD10B50C4600F009F8611D2279001D0AF0CBFD2079001D80B210BD218823
:20FA980001702188090A4170618881706188090AC170704710B5029C062B104612D10221C2
:20FAB80021714278017801EB02212180C278817801EB02216180011D2279601D0AF0A6FDC3
:20FAD800002010BD142B08BF1021E9D0042010BD7CE018B50B000BD003785380491E022B4F
:20FAF80089B205DB91FBF3F403FB141101B987E0042012BD2FE7022B00D101E00420704759
:20FB180011780098527801EB0221018000207047088870473CE010B5022B0FDB029C20720C
:20FB380061721078517800EB01202080981E608080B200B1901C6060002010BD042010BD1A
:20FB5800B3E009B9002070470420704700BF0A8802700A88120A42704A8882704988090ABB
:20FB7800C17004207047042B00D101E00420704700981178537801EB032101809178D278D5
:20FB980001EB02214180002070470888704700BF118001B90020506000207047888840045A
:20FBB800000C704703EBD3704008B3EB400007D15B08022B04DB00988380026000207047F8
:20FBD8000420704708887047E2E700BF02464B8808881370584380B2401C80B2704718B556
:20FBF8000B000BD003785380491E042B89B205DB91FBF3F403FB141101B901E0042012BDE4
:20FC18001480401C5060002012BD14E010B5042B0EDB00F062F8D478917801EB04214180FB
:20FC3800191F818089B201B1111D8160002010BD042010BD00BF0A8802700A88120A427076
:20FC58004A8882704A88120AC2708888001D80B2704710B5042913DB03784478091F03EB65
:20FC780004231380C4788378918003EB042389B2002914BF001D002090605380002010BD31
:20FC9800042010BD0978017001207047012B04D1009811780170002070470420704709B98A
:20FCB800002070470420704700BF0A8802700A88120A42704888801C80B2704710B5022B10
:20FCD80009DB00F00AF8991E418089B201B1911C4160002010BD042010BD029811785478B6
:20FCF80001EB04210180704709B900207047042070472DE9F04784B080460C9C8A46164614
:20FD1800994654B9172004F03FFB0125040005D11326304604B0BDE8F08700252046012748
:20FD3800BAF1000F00F8016B02D04946D047471C30060DD51021404604F01EFCD8B9BFB2D3
:20FD5800E2193946204604F045FE064668B90C370420ADF800000194ADF808706946404614
:20FD780003F0D7FD00280646D3D0002DD1D020460CF042FDCDE71926F7E730B5022918BF66
:20FD9800102985B00446154603D1022B18BF102B01D0002017E00A469A4203D129460AF0D4
:20FDB80061FD10E01029694606D1284600F00DF810226946204604E000F007F810226946C0
:20FDD80028460AF04FFD05B030BD38B505000C4618BF002C0BD010220FF2A40120460AF05B
:20FDF80015FC2878207368786073012032BD002032BD30B505460C0018BF002D85B014D07C
:20FE18001022294668460AF001FC68460021818110220FF26C010AF025FD012805D1287B55
:20FE38002070687B6070012000E0002005B030BD38B504464FF6FE7084420D460BD0172D82
:20FE580009DB03F0FDFD2946884204D32046BDE8344004F0BFBB012032BD80B54FF6FE71C3
:20FE7800884205D004F0C4FB010005D1172002BDBDE8014003F0E4BD02BD70470020704784
:20FE9800FB349B5F800000800010000000000000282809DA4FF6FF72914205D0DFF8302356
:20FEB80022F810100020704702207047282804DADFF81C1331F8100070474FF6FF707047B1
:20FED80070B504460D46C34E1C22002130460AF09BFB347775770DF06FF801000EBF0121E7
:20FEF80000211220317070BD10B5BA4CE160A060102200210AF093FC012801D1A0680CE0F2
:20FF180010BD10B5B34C6060102200210AF087FC012801D1606800E010BDBDE81040102112
:20FF380004F007BDAB48406870472DE9FC41A94DAE7F0746032F0C464FF0000824DC287871
:20FF5800032818BF102058D101F095FA28B900F049F910B900F048F908B112204DE0012F59
:20FF780018BF022F1DD1BCB10622002168460AF04BFB00F044F838B90622FF2168460AF0C2
:20FF980043FB00F03CF808B1022036E00622214668460AF03BFB0BE00621684604F0C9FC10
:20FFB80006E0032F04D16868694604F077FB8046894CAF77042120780CF02AFB00202884EC
:20FFD8005FEA080014D1BFB1684600F05DF85FEA00080DD1032F0FD11D20FFF767FF2884EA
:08FFF80050B120784EF66022A2
:020000040001F9
:2000000004210CF08FFB03E05FEA080018BFAE774046BDE8F6810622694620460AF02EBC42
:2000200070B5064600243000704D05D121B1062205F110000AF0F6FA297801290CD10124B1
:20004000300004D10220287006F092FD04E000202870304600F0A6F8204670BD38B5002418
:20006000E0B10578614A290006D14178837801EB0321D182C0781076107802280ED101243C
:20008000280006D103201070117ED08A03F0DEFC01E000211170284600F084F8204632BD56
:2000A00010B5524C0146A07F78B1062204F124000AF0B8FAA07F04F1240100F007F804F144
:2000C0002400BDE810400CF087BF10BD79B102000DD04A79012808BF42F0C00206D002F080
:2000E0003F0203284A7102D142F040024A717047010018BF0120704770B53C4E317FFF29E9
:20010000054615D00A200AF099FA040010D0D02108202170A07065700622B07FE07006F1E7
:200120002401201D0AF07EFA307F21460CF0C2F9F07F01280FD12F49086800281EBF8068D1
:2001400000288047BDE87040294800784EF6602204210CF0E7BA70BD244880687047234847
:20016000C168086870472148C1680A68521C0A60007FFF281CBF4FF480410CF0E5B970477D
:200180001A48807F704738B50446184D05F110000CF026FF05F110001CB9A97F09B105F1D1
:2001A000240032BD70B5114E317FFF29054619D00E200AF043FA040014D00020D0212170AD
:2001C000A0706570062206F11001E01C0AF02AFAF08A60812146307E2073307FBDE87040E9
:2001E0000CF068B970BD00008444002058440020104500201445002004F078BA274900E0AD
:200200002749086800B101207047010081B001D0172801DBFF2801D1012000E0002001B08C
:2002200070472DE9F04E0F4693460026BBF1200F82461D463E7003DB0020BDE8F08E8619EB
:20024000F0B25845F8D2F6B2AC5D761C002CF3D0F6B2A1198B45EFDB15F806904846FFF740
:20026000D4FF761C0028E7D0601ED1453870E6D1F6B2A819E1E70B490A78104308707047BE
:2002800008490A7832EA0000087006D10648006818B14068002818BF004770472043002079
:2002A0001C430020244300202C4300202DE9F04104468846122740464FF6FE71884282B0DB
:2002C0001646DFF88C5909D1A86900281CBF0268002A28D041462046904721E04FF6FF7112
:2002E000884213D1A86900281CBF0268002A04D0414620469047070005D03146204600F067
:20030000D9FA07000FD12C706E700CE004F013F948B10078A04205D1314640460CF064FE39
:20032000074600E003273846BDE8F68110B5044684B000F072F808B9022029E02088012179
:2003400004F026F908B9142022E0208804F031F9042812D1DFF8F80881894FF6FF72914254
:2003600018BF112014D12288828161888180A188C180E188018121894181002002900190F5
:2003800021890091E388A2886188208806F048FC04B010BD30B5044685B02088402104F0E0
:2003A000F7F8002836D02088ADF8040000F035F8002500281CBFA07A002807D100216846A1
:2003C00000F0CDF9A07AF0B102251CE091218DF800103E208DF8010006218DF802108DF81B
:2003E00003500121A088ADF808006088ADF80600E088ADF80A002089ADF80C008DF80350D7
:20040000684600F0ACF920880022402104F05EF8284600E0122005B030BD2389E288A188C3
:20042000608806F01FBB70B50E46DFF828180978022918BF0129144601D1122070BD0CB977
:20044000022070BD04F077F8050001D1142070BD1EB1287940F0020028711022214605F1E8
:2004600018000AF0DFF82069A862002070BDF8B505000C4601D10220F2BD288804F05BF815
:20048000060001D11420F2BDDFF8C8070078022818BF012803D0B07C082802D10CB1122068
:2004A000F2BDDFF8AC77786908B11120F2BDB0200CF056F9786108B91320F2BDB02200F0C0
:2004C000C2FA786929884180A022291D001D0AF0A9F8796902200870B07C2A887969DFF83A
:2004E000785708280CBF012000200B1D297804F03DFC05461CB12146304604F015FE2800D7
:2005000018BF00F055FA2846F2BD38B504460D4604F011F808B9142032BD8DF800506946B9
:20052000204604F030FD32BD38B50022A0B101230624E4B2051915F8015C303D0A2D0BD2F8
:2005400003FB05220A256B43641EE5B2002DF0D11046BDE8344001E0022032BD30B5054601
:200560000C4685B0204603F0E6FF08B9122019E0DFF8E806854228BF022013D210220021FD
:2005800068460AF04DF88DF80050280A290C8DF801008DF802102D0E8DF8035021466846ED
:2005A00004F02AFC05B030BDF8B50746DFF8A4060078022818BF01280E461D4601D11220A7
:2005C000F2BD0DB90220F2BD384603F0B4FF040001D11420F2BDE06A08B10CF009F91C21BA
:2005E00028460CF0A9FBE06208B91320F2BDA17C08290BD1069949B1817E009100F11203AF
:20060000028A0146384604F0BAFD00E00020217941F004010EB141F002012171F2BD2DE9C4
:20062000F0410D4603F087FF04001FD0A56200F007FA0646C0B200B92678A76A94F805809B
:20064000102009F0FBFF050010D0D020287085F803800020687006220920A870A11D281DA6
:2006600009F0E0FFEF602946F0B21EE0BDE8F0812DE9F04105460E4690461F460E2009F0E6
:20068000DDFF04000FD0D021217000206070A6800C20A07006224146A01D09F0C3FF277306
:2006A0002146284601E0BDE8F081BDE8F0410BF001BFF0B50C0087B04FD0A079DFF8905501
:2006C000002828690CBF0826042608B9DFF890050778042E08D1DFF88C15086800281FBF99
:2006E0004168002900208847207D059004F10803608A04903946208A0390E089029001963B
:20070000A0880090E279E07800F070F8E07880B9172104910122E089039002960020019050
:2007200004F108000090E379A188384603F07EFEE070286908B100F056F9287868B1697847
:2007400000F0B8F848B1E378312B04D0A2882978184600F079F80020287007B0F0BD10B50A
:2007600084B0848859B10021029101918289009243890289C188204606F010FA1FBD204604
:2007800004B0BDE810403B2106F00ABA70B504460026A08803F0CFFE18B10678A08803F0BB
:2007A0007BFEDFF8AC54287838B1864205D1697800F080F848B100202870300005D0A379A7
:2007C000A288A078314600F03FF8686908B100F0EFF8A08803F0EDFE042802BFA088A9898B
:2007E000884204BF4FF6FF70A88170BD2DE9F0410746884616461D46162009F01FFF0400F0
:2008000020D0D021217005206770A070E6702DB106222946201D09F005FF04E00622002128
:20082000201D09F0FDFE0B980A99099A089B079D069F6182207567812573E381228221464B
:20084000404632E7BDE8F081F8B504460D4616461F46082009F0F2FE010008D0D0220620D6
:200860000A7088704C708E808F712846EEE0F1BD2DE9F0410546884616461F460C2009F00C
:20088000DDFE040014D0404603F055FE08B9DFF8D00300780699D0222270618165700722E3
:2008A000E570A4F80480E6802781A2702146FCE6BDE8F08110B50C4603F052FE28B1408849
:2008C0002146BDE810400CF08FBB122010BD2DE9F84F8046894692461C46484603F02BFEA1
:2008E00005001EBFDFF86873786900285ED000F1A4021821106800B13421906800B11431F1
:2009000004B11C31506800B1173188B209F096FE06004BD0182200F096F800F091F85FEAC2
:20092000000B08BF95F800B0D020307086F801800A20B070A6F8049086F806A006F1180565
:200940007969D1F8A40040B1B5602846D1F8A41000F11C051C2209F065FE7969D1F8AC0054
:2009600040B1F5602846D1F8AC1000F11405142209F058FE3CB13561284600F11C051C226E
:20098000214609F04FFE7969D1F8A80030B175611722D1F8A810284609F044FE31465FFA6D
:2009A0008BF00BF087FDBDE8F14F01E0BDE8F18F10B5A74C6069A8B1D0F8A40008B10BF058
:2009C00017FF6069D0F8A80008B10BF011FF6069D0F8AC0008B10BF00BFF60690BF008FF3E
:2009E0000020606110BD10B5994C206940B10BF0FFFE002020610420BDE81040FFF740BC81
:200A000010BDF8B506460F46384603F094FD040015D000F015F8050008BF2578062009F04B
:200A20000DFE04000BD0062200F00DF8D020207066700E20A070A7802146E8B206E0F1BD5F
:200A40002620FFF73FBA002109F0EABDBDE8F4400BF030BD2DE9F84306460F469046994638
:200A6000384603F068FD050021D0102009F0E6FD04001CD01022FFF7E6FFFFF7E1FF00B912
:200A800028780A9B0999089AD0252570E1720F256670A570A78084F8088084F80990A2727D
:200AA000E3602146BDE8F443C0B20BF003BDBDE8F1832DE9F84307468846914603F03BFDFC
:200AC000040028D0142009F0B9FD050023D0FFF7B7FF060008BF2678D02028700622002058
:200AE0006870A11D0B20A870E81C09F09BFD18F0010118BF012129736F8118F002010846A0
:200B000018BF01206873C5F810902946F0B2BDE8F4430BF0CFBCBDE8F1832DE9F14F9046ED
:200B20000A9D0B9EDDF830A00D9C8B469946404603F001FD07003ED09DF8000000283AD113
:200B4000387940F010005FEA49714CBF40F0020000F0FD00002D08BF002E08D1BAF1000FC2
:200B600008BF002C03D100F0FB00387123E040F0040038713CB12069B8621022214607F119
:200B8000180009F04FFD4DB1BBF1000F06D1F86A08B10BF02DFE1C21284609E05EB1BBF1D8
:200BA000010F08D1F86A08B10BF022FE1C2130460CF0C2F8F862264F7869002842D085B18D
:200BC000D0F8A40028B91C200BF0CAFD7969C1F8A4007869D0F8A40018B11C22294609F0CF
:200BE00021FDBAF1000F11D07969D1F8A80028B917200BF0B5FD7969C1F8A8007869D0F838
:200C0000A80018B11722514609F00CFD8CB17969D1F8AC0028B914200BF0A2FD7969C1F8B3
:200C2000AC007869D0F8AC0018B11422214609F0F9FC9DF8000033464A46414601B0BDE8E4
:200C4000F04F44E6BDE8F18F0749086070470000D4440020754400201045002040420F0080
:200C600074440020144500202843002070B5DFF81066054630680C4608B1112070BDDFF803
:200C80000416087810F0050F01D1122070BDDFF8F805806800281CBF0078002801D1102014
:200CA00070BD0C200BF05CFD306040B30120FFF7E2FA306805700021306841700A22214607
:200CC000801C09F0AFFC00F0CFF9040002D000F0B7FA15E0DFF8B4050178032910D11D205D
:200CE000FFF7F0F8DFF8A815088048B1DFF8A40500784EF6602204210BF014FD00E01324FB
:200D0000204670BDF8B50E46DFF8781517460A7812F0050F1D4627D0012EDFF86C1502D132
:200D20008C680CB301E0CC68F4B11F2F02DC3A0002D00DB90220F2BD08701F220021601C21
:200D400009F06EFC3A462946601C09F06BFC2770384626B1611CBDE8F4400CF049B9611CA8
:200D6000BDE8F4400CF048B91220F2BD38B5DFF81045216809B9122032BD0978814201D022
:200D8000032032BDDFF80C55287802210BF04CFCDFF8F41400204880042128780BF044FC3C
:200DA000DFF8EC1400200880032122685170BDE832400CF025B9F8B50446DFF8C804017841
:200DC00011F0050F01D11220F2BD1CB12078FFF71CFA08B90220F2BD6078801C20283CDA76
:200DE000207800F0B0F908B11820F2BDDFF89864706800210022002330B345686D7841B9A2
:200E0000D2B2AF18BF1C202F02DAAD1CAA1802E00121AD1CEB180068EEE708200BF0A0FC2A
:200E200005000FD0082200F08BF8716831B100E0014608680028FBD10D6000E075606C60FD
:200E40000020F2BD1320F2BDD8B20028E5D06078DBB2C3189B1C202BDFDB0B20F2BD80B56F
:200E600000F026F801D1002002BD00F06CF900B1406802BD38B500F01BF801D1002032BD75
:200E8000DFF804345968002201E00A46096861B14C6825788542F8D10868002A14BF1060EE
:200EA000586008460BF0A4FC00E00024204632BDDFF8D0130A7812F0050F7047DFF8C40391
:200EC000017811F0050F18BF00F049B91220704770B5DFF8B443A06818B10BF089FC00206E
:200EE000A060E06818B10BF083FC0020E060DFF89453287810F0050F1CD004F1100000F0B4
:200F0000B9FB2878002610F0050F11D000F07DF9A06060B100F013F800F077F9E06010B18F
:200F200000F00DF804E0A0680BF062FCA6601326304670BD002000F09DFB002070BD20225E
:200F4000002109F06DBB2DE9F047014682B08A88DFF82C63012542F206043068DFF82873A3
:200F6000131B05D09B1E012B62D99B1E0FD00CE08968097848B10A0004D1457001200CF0AE
:200F80003FF8014608006CD036E0002569E0896891F800800028F8D04078DFF8FC920128DB
:200FA00031D100F05BF9DFF8ECA2A0B10120FEF789FF0446422C0AD39AF800004EF66022AA
:200FC00002210BF0AFFBA4F13C0078800DE04FF47A70444302E0FEF775FF04462CB19AF8DB
:200FE0000000224602210BF005FB31680220487099F8000018B9404600F00AF931E00021EB
:2010000089F800102DE099F8000050BB032009F015FB010009D0D020087081F8018004200A
:201020008870306800780BF045FA00F009F918E042F2080082428868397806780CBF012475
:201040000024FF290DD0042009F0F8FA48B1D0210170467002218170C470014638780BF00D
:2010600029FA2846BDE8F687F0B5854F3868002885B02ED0847800F00AFA28B10A20FEF761
:2010800021FF05460B200DE000F0E8F828B10620FEF718FF0546072004E00820FEF712FF6E
:2010A00005460920FEF70EFF064678480078FFF71FF83968CA7A039203468A7A0292284660
:2010C0000A1D01922246C978009131460BF09CFF00E0012005B0F0BD70B5014668486D4CD7
:2010E00000682278684D01291ED16B8813B16A4E317821B130B30078BDE8704036E63C2B03
:2011000003DBA3F13C01698070BD022110460BF08BFA6A884FF47A704243207802210BF0B7
:2011200069FA0020688070BD60B1564801784B0708D5022110460BF077FA00206880BDE82E
:2011400070407DE070BD01464F48406800E0006800281EBF426813788B42F8D17047F8B553
:2011600048480178002411F0050F01D11220F2BD454EB06810B900F048F8B060F06810B9A5
:2011800000F043F8F060B06800281CBFF168002901D11320F2BDFFF7D2FEF068FFF7CFFEA2
:2011A0007568B26835B36CB96868117843785F18BF1C202F05DA571C78189B1C59181170EB
:2011C00009E00124F268696813784978501C1844891CCB1813706A685178491C01706A6874
:2011E00011784170801C69684A78496809F01AFA2D68D6E71078511C0BF0FAFEF068411CD9
:2012000000780BF0F9FE0020F2BD20200BF0A8BA38B51B4D0446286888B1032009F00EFA6C
:20122000010008D0D02203200A7088704C70286800780BF03FF914B1BDE8314000E031BDAE
:2012400010B50F4C206840B10BF0D2FA002020600120BDE81040FFF713B810BD80B50A4863
:20126000806858B10278431C69460120FEF7D9FF20B10178C80701D5012002BD002002BD59
:201280002043002075440020F04400207644002078440020104500207744002038B5044661
:2012A0000D4603F048F9A0B1807C042801D0122032BD3749086808B190F899502946684605
:2012C00003F070FB334B6A460221204604F032FE32BD142032BD80B52F4801784A0707D571
:2012E0002E48FFF7B1FC2E4A4FF6FF71118001BDBDE802400020FFF7A7BC7CB50124032878
:201300000D4610D042F21301884204D04FF6FF7188421ED02AE0A8780C2818BF112826D1E2
:2013200000F027F823E0E878A9881D4E1A2804BF32889142F4D06A8900922B89EA88FFF7A8
:2013400097FAA8883188884211D14FF6FF7030800DE068790024122809D1ADF80040297976
:2013600068886A4602F012FB012400E00024204676BD38B50A4C20884FF6FF75A84205D0A9
:20138000084B09491A7802F014FB258031BD0000E8440020FD5E0100754400200C45002090
:2013A000E044002010450020D8440020B4494870704710B5B24C207009F017F82078BDE834
:2013C0001040052102F09CBA7CB5AD4E30780D46290419D50AF016F9040085F4004511D061
:2013E00000F057F858B92078A22806BFA54908787078FF2803D021460BF05CF802E0204628
:2014000009F034F9284676BDE90709D5B06800281FBF416800290020884785F0010076BDAF
:20142000A90709D5706800281FBF416800290120884785F0020076BD690726D5924C2188E2
:20144000E9B1481E208080B2E0B9FEF7D7FE48B18E4901200870706800281FBF416800293E
:2014600001208847FEF76AFD694603F023F96846FEF716FE1D20FEF725FD208002E00421B0
:201480000BF0D2F885F0040076BD002076BD03F096B838B5012402464FF6FF7011789129F6
:2014A00002D0A2297AD07FE0517805294AD00E2904D00F294AD03E296CD075E095887048AB
:2014C00041F20903E91A2ED040F6F973C91A30D0C91E32D0491E08D0891E022905D9C91E88
:2014E000012916D9C91E09D05EE0406800281CBF0168002959D01046884753E06448006803
:2015000000281CBF4368002B4FD0114642F20E003EE0806800281CBF0368002B45D011462F
:20152000284698473EE09068411C0078FEF778FD38E09068FEF792FD34E090680078FEF7FC
:20154000DBFD32E01046FFF721F92EE0958842F20D03E91A13D0891F02D0891F0FD023E0E2
:201560004C490B8883420AD04B48006800281CBF0368002B19D0114642F2130008E0444815
:20158000006800281CBF4368002B0ED011462846984707E0104600F00AF803E00146508857
:2015A00000F04DF8044600E00024204632BD70B5064682B00125B0780128014612D00228E6
:2015C00006D0032812D0062816D00A280AD033E02B48806800281CBF416800292DD0304652
:2015E00088472AE03146FFF764F826E0B088324600F025F8054620E00E2009F01FF80400F9
:201600001BD0B0880122402102F060FFD02020702146F07860701120A070B088A080F088A2
:20162000E0803089208170896081B089A081154800780AF03FFF00E00025284676BD70B5E4
:201640000C46154602F0B5FF0126042804D11248006850B1026803E00D48006828B14268BF
:201660001AB12946204690470646304670BD044988607047024948607047084908607047FE
:2016800010450020744400207844002077440020EC440020E0440020284300202C43002098
:2016A000F8B5144600250E46DFF82073DFF8203340B1012815D0042818D006281ED00728B8
:2016C00022D02CE0162928DA1622002107F10C0008F0A6FF3246214607F10C0008F0A2FF55
:2016E0001EE0022E19D12088388119E0082E14D1384621460822FDF773FE11E0012E0CD1EC
:20170000DA6903F1280104E0012E06D1DA6B03F14801207800F040F802E0182500E0022517
:201720002846F2BD10B50B460024A84920B1012808D0042809D00DE015220C31184608F0D3
:2017400071FF08E00889188005E018460822FDF747FE00E00224204610BD7047002070479B
:2017600080B50021C00707D50FF26C2398481022072101F01CF90146084602BD80B50021F6
:20178000C00704D5924A508901F03DF90146084602BD90490860704710B50B7884074CBFA3
:2017A00043F0020303F0FD0304064CBF43F0800303F07F0304074CBF43F0080303F0F7037D
:2017C00084064CBF43F0200303F0DF0310F0AA0F0B7004D0107840F00C00107010BD18B95F
:2017E000117801F0F301117010BD2DE9F8430D461646287802281F464FF0000862D16868B4
:2018000001784078089C01EB002189B220001CBFB1F5285F0B205AD14FF42850091A08D077
:20182000491E1ED0491E2CD0491E22D0491E2ED048E0DDF82490E8680BF06CFA214680B237
:20184000421A4A45ACBF4C46041BA4B26018162804DA3C802246E86801440EE04FF00D089C
:2018600034E0E8680088022139803070000A70702CE0062038800622E968304608F0D2FE75
:2018800024E001203880E868017831701EE0E868B0B108213980018831700188090A7170C9
:2018A0004188B1704188090AF170818831718188090A7171C188B171C088000AF07105E055
:2018C000398003E0A7F800804FF001084046BDE8F2832DE9F0470F4682B039780024022991
:2018E00070D1804678680A9E0178DFF8E8A09146427801EB022189B24FF42850091A1D4665
:2019000006D0491E29D0491E4ED0491E39D059E0F8680BF0FFF980B2B04204D3A819162816
:2019200003DB0D244FE007244DE0FB682A464946981908F077FEAD19F868ADB2C5F116023E
:201940000021401908F06CFEDAF8000000281CBF0268002A37D0002123E08EBB022DE0D1EE
:2019600099F8000099F80110FA6800EB01201080DAF8000000281CBF0268002A23D00121B8
:201980000FE0EEB9062DCCD1F8680622494608F049FEDAF8000000281CBF0268002A12D040
:2019A0000321404690470EE056B9012DB9D199F80000002813BF0128F9680870802402E0DE
:2019C0000B2400E001242046BDE8F687204500204445002030430020EB170100D31801009B
:2019E0000000000070B5DFF8945A2878062460430AF0B6FEDFF8881A086008B9132070BDE0
:201A00000020FF222B78984211DA0B6804FB00F61E44002814BF4FF6FF734FF6FE73338038
:201A2000401C0023F270B2703371C0B2EAE70FF2C14000F059FD0FF67910FDF757FE0FF698
:201A4000B91002F0E4FC002070BD70B50446208868B160680378426800F078F948B9606857
:201A600003784268DFF81C0A00F072F908B9022070BDA078C01F0A2801D3182070BDDFF8A0
:201A8000086A308820B12188C0F58030884201DA012070BD0C200AF063FE050001D11320B9
:201AA00070BD002008E06268318880B202EB0012401C5181491C318081B222889142F2D384
:201AC0000020286008222146281D08F0ABFD716811B9756004E0014608680028FBD10D6074
:201AE000002070BD70B5DFF8A0395C6802460846002101E02146246894B1A5686E89964254
:201B0000F8D1226800290CBF5A600A6018B10822211D08F087FD20460AF06AFE002070BD98
:201B2000012070BDDFF864190870704710B5044611F0140F104603D000F013F9012204E075
:201B40004A0608D500F00DF9002201462046BDE8104002F05FBDC80701D4022010BD0020DD
:201B600010BD70B50E460546B10610461C4608D500F0F7F801462846BDE87040012202F08A
:201B800049BD16F0880F0FD000F0EBF8014606F00802284602F03EFD010009D0617A41B167
:201BA000227A012A04D070BDB00701D4032070BD002070BD7CB50546002000900E4602238F
:201BC000DFF8CC284FF6FF71012000F02CF8040026D0002304221D21284600F0B7FD01902C
:201BE000E0B104216089ADF80210ADF80000012001990870002001994870FF200199887094
:201C000033460199C87000226946284600F00BF9040006D001980AF0FBFD02E0152400E0E6
:201C20000124204676BD2DE9F0478146DFF858084468884692461E4600E02468BCB10027E5
:201C4000A188B8B28842F8D2A068BFB200EB07156889484528BF804507D35EB12978686859
:201C600033465246FEF795F820B97F1CE8E70020BDE8F087089810B1A1684A890280284625
:201C8000F6E7F0B5DFF80028526814E004F1010C1FFA8CF3BB420DD21FFA8CF405EB0413FF
:201CA000B3F80AE08645F1D101B10E801846F0BD0020F0BD1268002AFAD095686E89B04296
:201CC000F8DB9788BB199842F4DA4FF0000CDFE72DE9FC4106460025ADF804504FF6FF770D
:201CE0007089B84290461C4608D001AA0092401C3378726880B2FFF796FF05463378726836
:201D000000F024F830B933787268DFF8780700F01FF808B170890CE033787268DFF8740777
:201D200000F016F860B11DB1BDF80400404504D0404600F0D3F8074603E068893F1800E01B
:201D4000778904B127802846BDE8F681DFF848070221FEF71EB880B500F0ECFA00B1008845
:201D600002BD80B500F0E6FA08B1807802BD102002BD70B5012982B00446154616D0032908
:201D800018D0052925D0072927D0092929D00B292BD00D292DD00F292FD0112931D01329D6
:201DA00033D0172934D0192936D039E02946FDF7A0FC33E001F050FEADF800006946204670
:201DC000FDF7A0FC06002CD12988204600F06BFC27E02946FDF7A2FC20E02946FDF7B6FCE5
:201DE0001CE02946FDF7C2FC18E02946FDF7D4FC14E02946FDF7DEFC10E02946FDF7E8FC33
:201E00000CE02946FDF7F3FC08E0FDF701FD05E02946FDF703FD01E0FDF70DFD064600E057
:201E20000226304676BD2DE9FC410E46054617461C4601A900F08BFA804638BB380014D02C
:201E40000020ADF8000069463088FFF71AFF012FBDF8000018BF0027FFF783FF01463A4625
:201E6000284602F0D7FB804680B931462846FDF7F3FC804650B9019DFF2C07D0AB1C1E22F3
:201E800029460FF2495000F0F0FBEC704046BDE8F6817CB50D460446164601A900F057FA4B
:201EA00017281AD0300014D00020ADF8000069462888FFF7E6FE012EBDF8000018BF002606
:201EC000FFF74FFF01463246204602F0A3FB010003D129462046FDF7B4FC76BD10B5044679
:201EE000FFF739FF01001CBF611E0C18A0B210BD2DE9F0430E4689B08146B07800241E28E7
:201F0000174614D1484600F036FA04001EBFA078FE28FF2822D0002000900022B378E07844
:201F2000494600F077FB204600F03AFA16E0122804BF7078012813D0484600F01CFA0400A7
:201F40001CBF2279002A0BD0100607D4B178484600F0BCFB207940F08000207100206AE073
:201F6000DFF828552878FF2812D0B078811E17290ED200F084F958B1B07800F0ADF938B160
:201F8000307810B97178012904D1B078122801D0062050E0B07800F072F9844602A80090D8
:201FA000B388B26871783078E0470028804641D1B07800F091F9024602A948469047804654
:201FC000E0B9B378042B35D002A8009000222878494600F01FFB002880462BD1B17802A8B7
:201FE00000F08AFB08B100203870B078122804BF717801291ED0ECB120711BE07078C8B933
:20200000B1788DF800108DF804806946B078042818BF0628BDF80800ADF802004846FDF70B
:2020200068FB28B16B4601221621484600F031FB4FF00008404609B0BDE8F083002070473A
:202040002DE9FE430F46814638887988814201D3010001D1012069E00021ADF8041002910B
:202060004FF6FF7826E002942878022839D1BDF8006001218DF80610B6082878022857D1B2
:20208000698904F8011B02226889000A04F8010B2046696808F0C6FABDF80400401CADF866
:2020A0000400B1B2BDF80400884241D2688940453ED0401C0021009100237988002280B219
:2020C000FFF7B1FD050033D0BDF80400C8B96B4642460521484600F039FB0400C3D1112040
:2020E00024E002208DF806001221BDF8000090FBF1F6297810291BD1688904F8010B1022E4
:20210000C2E79DF806000128F3D1B6E701A94846FDF704FB48B101AB05221621484600F045
:20212000B8FA10B102980AF073FB0020BDE8FE83BDF804000028E9D10A20F7E710B582B04A
:202140004C880888844200D308B9012016BD00F015F808B90A2016BD002016BD10B582B028
:202160004C880888844200D308B9012016BD00F005F808B90A2016BD002016BD002200925B
:202180004A1D0B7921464EE510B5044682B0084669460088FFF775FD08B9012016BD017A5C
:2021A000BDF800202046FFF7C1FC16BD70B582B006460D46002409E0017ABDF80020304695
:2021C000FFF7B4FC01001DD1641CA4B2A888844222DA286810F81420401C694610F81400AF
:2021E00002EB002290B2FFF74CFD0028E4D1286810F8141001702868411C11F8141041707A
:20220000012076BD296811F814200A7029684A1C12F814204A7076BD002076BD10B50C4696
:2022200082B020886188814200D308B9012016BD23799948621DFFF78BFD08B9102016BD52
:2022400000200090237961882088621DFFF7EBFC08B90A2016BD002016BD38B504460D460A
:2022600069462888FFF70DFD08B9012032BD017ABDF800202B462046FFF773FC32BD022889
:2022800014D0042814D0062814D008281AD00A2812D00C2812D00E2812D0102812D0122888
:2022A00012D0162812D0182812D013E07B4870477B4870477B4870477B4870477B487047A5
:2022C0007B4870477B4870477B4870477B4870477B48704700207047022814D0042814D0A7
:2022E000062814D0082814D00A2818BF0C2812D00E2812D0102812D0122818BF162810D038
:20230000182810D012E06F4870476F4870476F4870476F4870476F4870476F4870476F4860
:2023200070476F4870470FF20900704700207047002070475449496800E0096829B18A689E
:2023400053898342F9D1081D70470020704710B50C4600F010F860B104B120608078FE28EC
:2023600001D1172010BDFF2801D1002010BD162010BD022010BD30B5414A1268002100E0C4
:20238000491C3E4C2578CBB2AB4207D2C9B206234B43D55A8542F3D1D01830BD002030BDA0
:2023A00010B50446A01C00F068F9FF21E17010BD10B50C46FFF7DFFF30B101794A1C944241
:2023C00004BF01F08001017110BD000010B582B004001EBFA078FF28FE280BD000200090C1
:2023E0001E232188E078172200F014F9FE21FF20A170E07013BD000070B505464FF6FE70D3
:20240000854282B036D008004FF6FF7609D12846FFF7B1FF70BB3046FFF7ADFF50B3058042
:2024200073BD012906D12846FFF7A5FF040021D026800BE002291DD10121284602F0A8F8A2
:20244000C0B92846FFF797FF040013D0A078FF280ED0FE2807D0002000901E23E078142289
:20246000294600F0D7F82046FFF79AFFFF20A0700020207173BD0448008870472543002016
:2024800034430020D4280100B44500201F4500200C290100DC280100D028010063F900007B
:2024A00095F9000011FA00000FFB00007FFB0000BDFB0000ADFA00002FFB000025FC000055
:2024C000A5FC00003D200100412001003D2101005D21010089210100AD2101001D22010003
:2024E0005B220100704770478049086070477F49486070477E4908707047032290FBF2F059
:2025000080B201F07ABA0278B02A04BF417800290CD10179122903D1417C012906D101E066
:202520001B2903D14088012101F084BA704710B5704C607002F057F8401C20700421607838
:2025400001F0DEF9BDE81040FFF74CBA38B50D46280410D56749487809F054F8040007D0E1
:202560002178A02908BF00F008F8204608F07EF885F4004032BD002032BD30B587B0044651
:2025800001208DF8000001A92046FDF7A3F9050028D19DF806105548CA0709D543682BB179
:2025A00060886A4601A9984705461BE0062519E0036833B160886A4601A99847050001D149
:2025C00010E006259DF8050060B99DF806008DF810000021ADF812108DF8145004A9608897
:2025E000FDF787F89DF8000000281EBFA06800280AF00EF945B99DF80600122806BF9DF870
:20260000051001291B2803D06088012101F012FA07B030BD2DE9F0410546FF2D0E4617464B
:2026200098461FD0202008F009F8040018D00699B02020706770668084F8048029B11822D8
:2026400004F1080007F0EEFF04E0182204F1080007F0E6FF2146284609F02CFF002002E0A7
:20266000132000E00220BDE8F08110B54FF47A746243BDE810400AF00BBC10B504001EBF18
:202680002078FF28FE2803D00AF088FBFF20207010BD80B5009313460A46014614480078FD
:2026A000FFF7B8FF02BD30B583B004460D46FDF7CBFB50B901A821460090ADF804507F23FB
:2026C0000B4C20780022FFF7A5FF37BD1CB58DF8041001A900918DF805200146044C2078DD
:2026E0007E230022FFF796FF13BD000038430020BC45002025430020052923D006291BD03D
:20270000072918BF09291DD00B2918BF0D2919D00E2913D00F291CBF1129122912D01629A6
:2027200018BF17290CD01B2918BF1D290AD0522918BFD22906D007E0C06870470068704763
:20274000806870474068704700207047F8B5052915461C4616D0062912D0092918BF1129D2
:2027600010D0122912D0162918BF17290CD01B2918BF1D290AD0522918BFD22906D007E0E5
:20278000072606E0022604E0052602E0032600E001264FF6FF72954203D1FDF76AFB851B83
:2027A00002E0D22908BF0C357719B8B201F0F8FD38B104B12580764231B2BDE8F44007F0A6
:2027C0001BBFF2BD80B5FFF797FF18B1BDE802400AF01EB801BD704702460020022971D1E5
:2027E0001178527801EB022189B24FF4C053C91A2AD0491E2BD040F6FF73C91A2AD0491EBB
:202800002BD0491E2CD0491E2DD0FD392ED0491E2FD0491E30D0491E31D0491E32D0491EBD
:2028200033D0491E34D0491E35D0491E36D0F83937D0491E38D0491E3CD0491E37D0491E62
:202840003BD0491E3CD070470FF27C0070470FF27C0070470FF2780070470FF2780070477B
:202860000FF2740070470FF2740070470FF2700070470FF2700070470FF26C0070470FF28B
:202880006C0070470FF2680070470FF2680070470FF27C0070470FF27C0070470FF27800F4
:2028A00070470FF2540070470FF2500070470FF2540070470FF2480070470FF24C0070473D
:2028C0000FF248007047000000180000011800000028000001280000022800000328000021
:2028E000002900000129000002290000032900000429000005290000002A0000012A00007E
:20290000022A0000032A0000042A0000052A0000062900000729000008297047DFF8281C9F
:202920000870704738B5DFF8244CDFF8245C20762878C00009F014FFE061C8B12A7800215E
:2029400008E04FF6FF7320F8313000EBC10500236B60491C9142F4DB052000F0AFF8207E5F
:20296000FFF7E0F8BDE83240DFF8240C01F04FBD31BD38B50D46280417D5DFF8181C087E97
:2029800008F040FE04000DD02178B02907D100F00BF920B1217904F10800FFF713FF20460C
:2029A00007F064FE85F4004032BD002032BD7CB505001C460DD0ADF800108DF802200195A0
:2029C0006846FFF742F806001BD1D4B16D89280001D1022615E00C2009F0C2FE010008BFE8
:2029E00013260ED0002008608D808C60DFF8A80B026812B9016004E0024610680028FBD187
:202A00001160304676BD30B5DFF88C2B05460C46106883B0002101E00146006898B18388DC
:202A2000AB42F9D1036800290CBF13600B6009F0DFFE69462846FFF755F8010002D10CB1DB
:202A4000019921603EBD01203EBDF8B5E0B9012918D1DFF8F83ADC69002118E06D1C5E7E1F
:202A6000E8B2B04212D204EBC100EDB246680C276F43F05B0028F1D00120F2BD1078BDE8D3
:202A8000F2401BE01820F2BD0220F2BD491CDFF8C00A0578A942F1DA34F831504FF6FF70B7
:202AA0008542F3D00025DAE70246002022B9DFF8E42A537E0B707047022070472DE9F84351
:202AC000DFF8885A0446002068764FF00C09E869DFF87C6A406809FB04F770B109F088FE4C
:202AE0000020002305E0E9690A1DC0B242F83030401C3278C1B29142F5D33078784380B280
:202B000009F02EFE5FEA000826D032787A43002107F086FD00200FE0516809FB0CF34FF03D
:202B2000000E21F803E019440CF1010CC1F808E0A445F1DBB844401C3278C1B2914208D2AC
:202B4000E969C0B201EBC0024FF0000CC2F80480EEE76C76002000E01320BDE8F28380B541
:202B60000021C00707D5002310220121DFF8440CFFF71DFF0146084602BD80B50021C00770
:202B800005D5DFF8302C5089FFF73DFF0146084602BDDFF8041A096821B18A888242FAD1F0
:202BA00088687047002070472DE9F04186B006460020ADF810000121DFF89059286A8DF800
:202BC000121038B900F048FF09F0CAFD0028286200F0DB8018220021284607F021FD307967
:202BE000471C02284FF6FF7817D006282DD0082830D00A2834D00C2854D00E2800F0848092
:202C0000102800F08680122800F08880162800F08C80182800F09080B4E000F01DFF288092
:202C200029467088FCF76EFD30B130892988884228BF084628809AE031892888814228BF4F
:202C400001467088FFF72FFD9CE004A9304600F0ADF875E004AA0021304600F032F96FE0DB
:202C600000F098F804004AD0708805AB42460B21FFF76CFD03006B6020D03079BDF81410BB
:202C8000039000220192029100F089F8040004D170882946FCF780FD25E0162C686808BF5A
:202CA000002427E000F076F8040028D0708805AB42460D21FFF74AFD686020B93089ADF8F5
:202CC0001000112441E03179BDF814200391029203467189019100F062F8040006D17088E1
:202CE0002946FCF767FD002841D12AE0162C686808BF002409F08CFD200001D121E0012433
:202D00003089ADF810001CE004A9304600F07FF916E004A9304600F0F3F911E00DF11202C6
:202D200004A9304600F091FA0AE00DF1120204A9304600F0CBFA03E004A9304600F035FBFB
:202D40000446200011D0162C11D0707814280CD0BDF810003179688029702C712946708811
:202D6000FCF7C7FC08B1012701E0162C0AD170882B46FAB21621FFF78CFC18B1F9B2284612
:202D8000FFF720FD3046FFF7BEFB9DF8120006B0BDE8F08130890DF11601FEF772BF0095FF
:202DA000BDF816207088214600F003BC2DE9F04B054686B06888DFF894778B46FDF759F860
:202DC00004A98046009100F0DEF800248146B9F1000F5ED024E0B9F80A60BDF81020698961
:202DE0000DF112034846FEF773FF002E8146EED078680655641C7968A0B236120E54401C24
:202E0000441C7A68B9F1000F80B23CD0BDF812101154A4B2BDF812007968000A0855641C58
:202E2000A4B2A8F10500844233DA287903900026A8F1070080B20290019607F11A010091D2
:202E40003B6ABDF810206888494600F0B2FB002802BF7A8B288A9042BFD1396A686907F05F
:202E60000DFD0028B9D078680028B4D100F024F80721FFF76BFC00287860ACD12889ABF8A8
:202E80000000112015E0FF211154A4B278680155641CA0B248B12404A40C3C80394668882D
:202EA000FCF754FC28B1162003E02889ABF800000A2006B0BDE8F08B688800234FF6FF72C0
:202EC00070472DE9F043054685B0688889469046FCF7CFFF871EBFB2DFF870663189B81EC9
:202EE00088423FDB5FEA09003CD100F04AF8040038D06089288100F0A2F95FEA000931D1E0
:202F00002879039000210191B81E80B206F11A0102900091336ABDF810206888214600F0C4
:202F200048FB5FEA00091DD16389728B316A688800F030F85FEA000914D128894FF6FF71E5
:202F400088421CBF401C2881C8D10BE05FEA09002889A8F8000008BF4FF00A09484605B044
:202F6000BDE8F08330890028F0D0718890FBF1F0308031466888FCF7F9FB0028EFD0162018
:202F8000EDE704A800902B7B6989288905F10D02FEF749BE2DE9F8468246894615461E462D
:202FA000FCF767FFDFF8A4450746208990B9FFF784FF09215046FFF7C9FB606008B9112014
:202FC00023E0A81C60803F1F208901466A18974206D203E06088A91C8842F4D0012014E096
:202FE000401C20812A4660684654360A2089411C218161680E54606823894946184407F099
:2030000011FB20892D1825810020BDE8F2862DE9F047074686B07888DFF830650C46FCF752
:2030200028FF4FF00008451EA0F1010932E03979336ABDF810200391A9B2029100210191A9
:2030400006F11A0100910146788800F0B2FA8246B0BB706840B97888FFF72FFF0F21FFF79C
:2030600075FB0028706035D03088718B0346C9188945BCBF281A70837068728B316A1844BB
:2030800007F0D0FA3088718B0818308008F101001FFA80F8B8898045BCBF308848451DDAA3
:2030A000B86810F8182000EB480004A9437802EB032290B2FEF7E5FD0028B8D14FF0010AEF
:2030C00000F014F8706808B109F0A2FB504606B0BDE8F08700F00AF81120F8E778883146EC
:2030E000FCF776FB0028F2D01620F0E7B86810F8181000EB4800427801EB022121807047D1
:203100002DE9F04F054687B06888DFF840748846FCF7AFFE0446FFF734FF059400264FF07E
:20312000FF090446002CB6B275D000F088F80028834672D1287905993B6A03908A1F002080
:20314000019092B207F11A00029200902146BDF81020688800F02DFA002883465DD1002EC4
:2031600045D1FFF7A9FE1121FFF7F0FA0028786038D0788B001D78800DF11203796860898D
:203180008855761C60897968B2B2000A885402F1010ABDF8102069892046FEF799FD0400E2
:2031A0000AF101061FFA8AF207D1786800F80290B6B2786800F8069009E07968BDF81200CF
:2031C0008854B6B2BDF812007968000A8855761C78687A8B396AB6B2801907F023FA788BEA
:2031E00086199FE76089A8F80000112010E0788B7988021D914216D10599891F8019814281
:20320000BADA10E001002989A8F8001008BF0A2007B0BDE8F08F002003E06189A8F800105E
:203220005846002EEED0788896FBF0F0388039466888FCF7DCFA0028EAD01620E8E7BDF807
:203240001020217A6888FEF771BCFEB505460E462889174602A9FEF714FD04002ED0207AE4
:2032600081060BD5BDF8080000F09DF903000BD06888122221469847040020D1687C00285B
:2032800014BF5220287901E00E2418E00190002000906B89EA682989688800F08DFA040099
:2032A00007D1687C68B96888FCF7B2FA48B11620FEBD162C03D100243C7002E0012428891A
:2032C0003080687C00B100242046FEBD2DE9F041054682B00E4668889046012101F058F922
:2032E000002718B9142169700E205AE028896946FEF7C7FC040050D0207A81060BD5BDF86E
:20330000000000F050F9030014D06888122221469847070042D16C88204600F0FFF830B9DF
:203320004FF6FF7000F0FAF800283CD004800022864C02E00E2731E0521C637ED1B2994276
:2033400031D24168D2B20C2353430B4419880029F2D10C2205F10801184607F063F900209E
:2033600088F800000C2205F10801204607F05AF9AA89688800231721FFF7E8F9A06050B19A
:20338000AA89296907F04EF968882146FCF746FA30B1162005E0112700E001272889308003
:2033A0003846BDE8F6810927F8E72DE9FC4105468846688800F0B2F80026040045D0287A8D
:2033C00001283DD1214605F1080000F050F8F0B16768182000F045F83988688800F0ECF9BE
:2033E0000646162E02D10020B86029E0300027D03888A8F8000023E000F033F8688800F0A4
:20340000DBF9162816D10021B960761CF6B24F494A7E964213DA61680C2373430B441F46B8
:20342000398861B1701C90421DBF9889002816201820E1E70028E8D03988A8F80010064663
:20344000204600F087F8300005D16888FCF7F3F920B1162003E0162E08BF00263046BDE88C
:20346000F681019078880090BB88BA6870472DE9F84F0A4635494C7E0020834682464FF0B3
:203480000C08A2453CDA516808FB0AF50D442988002935D060B1884202BF6E8899B2B14260
:2034A00001BFA9888B441FFA8BFBCB1805D033E0B5F804B06B8808465B449BB20AF1010A4E
:2034C000DFE7002412E008FB04F14618B16849B1B288E81907F0A6F8B088C719B06809F0AE
:2034E00097F9BFB20CB100F059F8641C5445D9F80400E8DB8560A0F804B00120BDE8F28FA4
:20350000BAF1020F9146F8DB00275FEA0B0003D009F03AF90500D4D10020EFE738B51D4AD7
:20352000D269002100E0491C094C2578CBB2AB4207D2C9B232F831308342F4D102EBC10077
:2035400032BD002032BD0000BD450020404300209C43002070B5044600250E494A7EE8B25C
:20356000904210D26068EDB20C2169434618308848B1B06808B109F04BF900F00FF8002023
:2035800030806D1CE9E74FF6FF70208070BD00006938010040430020644300200C22002146
:2035A000304607F03DB880B5FFF7F3FA00B1806802BD2DE9FE4F0C468246207AC106934682
:2035C0001F464FF000080CD55846FFF7ECFF030000F0EA800A22214650469847002880468C
:2035E00049D12078DDF838900D9D0C9E022816D100F01FF94FF42052891A012910D9891EFD
:203600003AD0491E14D0FD397BD0491E00F08280491E6ED0491E74D0491E00F09780ADE030
:20362000002D2AD1E068017831800278416889E0002D22D101203080E068017839700021E8
:203640006089401C80B2FEF71CFB318860B10278921C51183180418979704189090AB97022
:2036600002784168F81C6EE0091D318004220021781C06F0D5FF99E0002D68D1E068058895
:20368000042131803D70290A797028460DF10201FEF7F7FA5FEA000921D0D9F80C50BDF811
:2036A00002204FF6FF746B462146FEF711FB50B999F80030D9F804208E480221FCF769FB08
:2036C00008B9ADF80040287802280AD169680222381D06F0A7FF3088801C308001E0ADF82F
:2036E0000050BDF80000B870BDF80000000AF8705CE0002D2BD1E0680168504609F046FC8F
:2037000002E025BBE0680088022131803870000A78704BE0E06809F0FDFA80B229468842DB
:20372000B8BF4FF0070841DB814208BF002206D009EB01028242B2BF4A46451BAAB23280FC
:20374000E0680144384606F06DFF2FE015B14FF00B082BE0E06807213180017839704178CE
:2037600079704188B9704188090AF97001793971C1887971C088000AB87117E05846FFF7CC
:2037800008FA00281CBFD0F800C0BCF1000F0BD00F980290CDF80490009533463A4621467E
:2037A0005046E047804601E04FF00E084046BDE8FE8F0000C04500202DE9FE438146884687
:2037C00017461E4602A94046FEF75BFA04002CD0BDF80800FFF7DDF900281CBFD0F804C095
:2037E000BCF1000F1FD00A980B9D0090334601953A4621464846E047060017D1FE2D15D09B
:203800002078022812D100F014F842F6021291420CD13978787801EB00218AB2414648460C
:2038200000F04CF802E00E2600E001263046BDE8FE8360680178407801EB002189B27047A3
:2038400070470020704710B584B0FE238DF808200193120A8DF8092000240094022302AA2C
:20386000FFF7AAFF04B010BD7CB50129054605D0022922D1012100F08BFEF0B92846FFF7E7
:203880004DFE08B1FFF766FE01A800904FF6FF760223194A31460120FEF7C5F90BE0E068D1
:2038A0000168284609F07AFBBDF80420002331462046FEF70DFA0400F1D173BDF8B50F4CF0
:2038C0000E462178FF290546174611D00A2006F0B5FE68B1B1210170458000214170017112
:2038E000C680078101462078BDE8F44008F0E2BDF1BD0000D4280100E8280100BD450020CD
:203900000B4610B5052B18BF042B03D0062B18BF072B08D10C22524C5343E21822F8301DB2
:203920009070002010BD022010BD38B50C4605462088052818BF042803D0062818BF072842
:2039400001D1606808B9022032BD0121284600F01FFE08B9142032BD4FF6FE70854207D029
:20396000284600F051FE2189884201D21B2032BD3C49087800282146284603D0BDE834403B
:2039800000F096BABDE8344000F048BA80B51346354A00920A4601212CE0E0B50192002374
:2039A0000522009202930A46304B0A2100F0CCF90EBD70B50D4684B004461646EB88AA884C
:2039C0006988288803F04EF858B1002104200291009001962A46264B1221204600F0B4F9EE
:2039E00000E0182004B070BD80B51346214A00920A46132100F0DAF902BD38B504461E48A0
:203A000001700846012810D11C490D882D1DADB209F0FEFA94FBF5F082B2284601B0BDE8DD
:203A200030400023002109F0F7BABDE83240002009F0EEBA03B510480178012981B004D197
:203A400002AA01A9012009F0EBFA07BD0B4A001F1080044A11707047084800887047000034
:203A600068430020D2450020AD3F01009D4001002B4001009140010027430020BE4500208E
:203A80007047000010B59D4C207000F099FC302200219B4806F0C4FD9A4A6078117808183A
:203AA00060700006000D08F05BFE606088B162781201002106F0B4FD0020FF236278C1B295
:203AC000914207D26168C0B201EB0011401C4B72F4E76070207806F08BFCBDE810400FF233
:203AE000292000F094BC30B50D46280489B0834C0CD5207807F086FD040004D000F029F8F5
:203B0000204606F0B3FD85F4004020E0E8071DD500F097F930B1A078A8B12078012108F07B
:203B200013FD10E0A17800291CBFE078FF280AD08DF80810002202A90191009265234FF6B4
:203B4000FF7100F034FB85F0010000E0002009B030BD3EB50446207890284BD161781329FC
:203B600015D10021654A06E0A368C9B233F8113018189070491CA5789078CBB2AB42F3D3CD
:203B8000002837D01078012108F0DEFC37BD65882146684600F0DFF90146019800B3BDF874
:203BA0000000052804D16946284600F027F819E004281CBF0628072814D10C21504A484343
:203BC0001118A1F13003188860B198786A46294600F0CBFA30B9BDF8000004280AD005E0D9
:203BE000012903D1A06808B108F012FE01212846FFF720FF37BD4149C8707047F0B50C46F5
:203C000089B0054620890026042844DB616802A800F090F8BDF80A20182A61DA2189101DE8
:203C2000814235D19DF80800C10736D56068071D9DF8090000F012FB04002CD026719DF898
:203C4000080001280BD0132821D12078042822D1BDF80A20394603A800F01BFA05E0BDF8CC
:203C60000A20394603A800F0C0F90646204600F016FB03A80190002100919DF80830207A3F
:203C80003246294600F093FA204600F0DEFA16B1284600F032FB09B0F0BD122817D16168EF
:203CA000091D03A800F0D7F90600F0D1144CA0890028ECD09DF80900009003A901919DF83E
:203CC0000830A07B0022294600F071FADFE79DF80910ADF800606A462846FFF757FED6E706
:203CE00017210120ADF80210ADF800006A469DF809102846FFF74AFECDE70000D04500201C
:203D0000684300209C43002010B504464FF6FE7084420ED0012906D002290AD101212046E5
:203D200000F036FC28B92046BDE81040002100F0E5BA10BD0A7802704A7842708A78C978FD
:203D400002EB0122428070472DE9FC410D4616461F4609990A9A044601AB00F04FFA804638
:203D600008BB0199089808703346DFF818060178491CCAB2002A06BF012101220A46017011
:203D8000019802710097204601990A79294600F00DF8804620B901981E2100F075FA02E0E1
:203DA000019800F052FA4046BDE8F6812DE9F041054684B00E4617469846172000F0F0FA26
:203DC000040026D00A9A100003D04146201D904700E00020010A2670E1706770A0700521C8
:203DE000ADF80010001DADF808000194DFF89815087800286946284602D000F059F801E072
:203E000000F00CF80546280004D0204608F000FD00E01325284604B0BDE8F08110B50C8863
:203E2000DFF868250C235C431319303B5A6832B94C685C60098958811981002010BD162074
:203E400010BD80B5052000F00FF858B9062000F00BF838B9042000F007F818B9072000F02E
:203E600003F800B1012002BD0C2210B5DFF81C1542431144A1F1300484B06268AAB1DFF8EB
:203E80000835197879B1ADF80000019269462089ADF80800608900F00BF810B1606808F090
:203EA000B7FC00206060012000E0002004B010BD70B50D460446288920B1DFF8D424118821
:203EC000814201D21B2070BD6868042106F094FB0646288930702889000A70702988B17060
:203EE0002888000AF0704FF6FE702D892D1D844213D10C2006F0A2FB68B19021017044808D
:203F000002210171C58086600146DFF88804007808F0D0FA17E0132070BD3346AAB20021B0
:203F2000204609F081F8010007D002280DD007280FD012280BD01F280CD1DFF84C140878CC
:203F400008B1401E0870002070BD142070BD022070BD042070BD70B50446002060600879B4
:203F6000022821D1CA88042A1EDB886801784378C57801EB0321837889B20E1D03EB0523C4
:203F800096429BB210D1052B18BF042B03D0062B18BF072B08D1218123806FF0030106F061
:203FA0002BFB6060002070BD012070BD0B880246022013700B881B0A53700B88012B06D1EF
:203FC000488890704888000AD07004207047022B0AD1488890704888000AD0708888107199
:203FE0008888000A507106207047022A1BDB0A784B7802EB032202800288012A05D18A7881
:20400000C97802EB012242800BE0022A09D18A78CB7802EB032242800A79497902EB01222E
:20402000828000207047012070470A8802700A88120A42704A8882704A88120AC2708A8875
:2040400002718A88120A4271CA888271C988090AC17108207047082A18D10A784B7802EB05
:204060000322028011F8022F4B7802EB0322428011F8022F4B7802EB0322828011F8022F7D
:20408000497802EB0122C280002070470120704705E0022A00D10EE00120704700BF0A8865
:2040A00002700988090A417002207047022A00D101E0012070470A78497802EB01220280D5
:2040C0000020704710B54A8800F8012B04234A88120A00F8012B0C8800F8014B0C88240A7B
:2040E00000F8014B0A8872B94A88022A04D1496808F047FE082306E0032A04D10822091D9B
:2041000006F090FA0C23184610BD10B5042A82B0044628DB08784B7800EB03206080881C7E
:204120000178437801EB03212180831C2088A0B96088022807D1082A15D10421184608F07D
:2041400009FE60600DE0032808BF0C2A0BD108221946201D06F066FA03E0012808BF042A8A
:2041600001D1002016BD012016BDF8B506460F461546102006F062FA040016D0A02121701F
:204180000020607067802DB10C222946201D06F049FA04E00C220021201D06F041FA21464F
:2041A000304608F087F90020F2BD0120F2BD2DE9F04180460E4617461D46202006F03EFAE3
:2041C000040019D007990698A2222270677066802071657129B1182204F1080006F022FA17
:2041E00004E0182204F1080006F01AFA21464046BDE8F04108F05EB9BDE8F081F8B51C00E9
:2042000006460D461DD0012100F0C2F9B8B162480278002300E05B1CDBB2934213DA5F4947
:204220000F6807EB031148880028F4D1002240330A704B8039B1CE800D722160F2BD14204F
:20424000F2BD0120F2BD1520F2BD10B504461022002106F0E5F9FF20607210BD10B50246FA
:20426000002300E05B1C4C4801788B420ADA4B490C6804EB031041880029F3D004799442F4
:20428000F0D110BD002010BD0A464FF47A714A4300F1090301460FF2190008F0F9BD10B5C7
:2042A0000446607A08F07AFDFF21617210BD000010B504001CBF6088002807D01721204682
:2042C00000F005F82046BDE81040BEE710BD1CB504460A46207804280ED1002101910091D2
:2042E0001323E188207AFFF762FFE18802B0BDE81040122205202FE013BD072170B504464F
:20430000002541BB19E025490868EDB200EB0516307800281CBF707AFF280DD0F188A1420B
:204320000AD108F03BFDFF20707214213046FFF7CEFF3046FFF789FF6D1C17490A78E8B20A
:204340009042E0D30425FF222146284600F004F86D1C082DF7DB70BD38B50C230B4C584302
:204360002044A0F1300465898D420AD1606840B1FF2A1CBF0178914203D108F049FA002044
:20438000606031BD98430020D245002068430020BE450020D0450020D1450020D4450020AB
:2043A00080B5001D80B208F043FE28B1BDE804406FF0030106F020B902BD704700207047FF
:2043C00038B5BB4C00220021204604F024FB20783025684308F0C4F96060B8B100210AE0AC
:2043E00005FB01F202444FF6FF735380491C00231371D362C9B222789142F1DB00200021C4
:2044000004EB8002401C0C289160F9DB31BD0022A74901EB8203996829B1521CD2B20C2A62
:20442000F6DB132070479860002070472DE9F84F8246894690469B46484600F07CF808B19C
:20444000112027E04FF6FF7000F075F8040020D00E9D0D9E0C9F0A9984F805B00622A01D65
:2044600006F0E0F80622002104F10C0006F0D8F8A4F8029084F8048084F800A00020E062B2
:20448000A774A682E5820021484600F000F9002000E01520BDE8F28F10B500F04CF8040082
:2044A00012D06088012100F0F2F8E06A08B108F09FF930220021204606F0B2F84FF6FF7076
:2044C00060800020207110BD022010BD38B50C46154600F030F860B10179002D14BF0C4303
:2044E00021EA040404710221408800F0D0F8002032BD152032BD38B50D4600F01CF8040016
:2045000017D020792870062260796870A11DA81C06F088F8062204F10C0105F1080006F094
:2045200081F8A07CA873A08A2882E08A6882002032BD012032BD30B500225D4B054600E0AA
:20454000521C1C78D0B2A04208D25868D2B23024544320444488AC42F2D130BD002030BD11
:20456000F8B5014652484368047800224FF6FF7700E0521CA24209DA302555435819468868
:20458000BE42F6D05D5D8D42F3D1F2BD0020F2BD10B50C464FF6FE71884206D0FFF7CBFF5F
:2045A00000281CBF0079204201D0012010BD002010BD80B5FFF7BFFF00B1807C02BD10B557
:2045C000002000223A4B08E05968D2B2302454430C44217901B1401C521C1C78D1B2A1429C
:2045E000F2D3C0B210BD32480078704710B50C46FFF7A1FF00281CBFC18AA14202D0C48218
:20460000002010BD012010BD80B5FFF794FF00B1C08A02BD70B582B005460C461646FFF701
:204620008AFF28B94FF6FE70854218D0142076BD0179C06A28B9CA0609D5C90609D40F2039
:2046400076BD01F01202102AF7D1002EF5D0052076BD20B1807EA04201D20C2076BD0020D2
:2046600076BD70B5040011D00026114D0BE068683021714308444FF6FF724188914218BF44
:20468000A047761CF6B228788642F0DB70BD70B504460D460026064800EB8600826812B145
:2046A000294620469047761C0C2EF4DB70BD00009C43002038B505000C4618BF002C01D16E
:2046C000022032BD0321684600F03FF900F030F822466946284600F07AF8050004D10322D1
:2046E0006946E01C05F09EFF284632BD30B505000C4618BF002C83B001D102203EBD03229A
:20470000E11C684605F08EFF00F012F801AA6946284600F05CF8010009D10322214601A856
:2047200006F0ACF8012801D100203EBD01203EBD9DF8021001F03F0141F040018DF80210CC
:20474000704730B50D46002818BF002D8DB0144600D00CB9022011E00146102200F034F86A
:204760001022294604A807F0B3F800F05EF80546102208A9204607F0ABF828460DB030BDBE
:2047800080B52020FBF79EFB38B1024606480078BDE80840012107F02DBF01BD02480078B0
:2047A000012107F041BF00009943002070B58CB000F020F800F006F8280A8DF81E008DF833
:2047C0001F50B2E010222146684607F081B870B58CB000F00FF8FFF7F5FF032229460DF18D
:2047E0001D0007F075F800F020F8044603220DF12D019FE004460D461646302200216846FC
:2048000005F00EBF70B58CB0FFF7F4FFFFF7DAFF00F096F800F009F89DF82F109DF82E2097
:2048200001EB022131800CB070BD6846D8E02DE9F14F94B0884692461E9C1F9F209D219E35
:20484000DDF888909B463022002108A805F0E8FE1499102208A807F03BF8102200216846D2
:2048600005F0DEFE07225146FFF7AEFF072259460DF1070007F02CF8280018BF01208DF877
:204880000E00200018BF01208DF80F001022002104A805F0C5FE0622394605A807F018F84C
:2048A000062231460DF11A0007F012F8102241460CA807F00DF869460CA800F01BF808A8C1
:2048C00000F08EF80446102210A90CA805F0AAFE04A90CA800F00EF808A800F081F8054621
:2048E000102210A9484606F0F3FF45EA040015B0BDE8F08F10B51022037811F8014B6340D1
:20490000521E00F8013BF7D110BD70B50C468CB0154601461E461022FFF756FF0822214697
:2049200004A806F0D5FF00F00BF8FFF77EFF0446102208A9304606F0CBFF20460CB070BDE9
:204940000822294606A806F0C3BF70B504460D4600260BE008F0E8F9F6B2010AA155761CB1
:20496000F1B2A94202D2F6B2A055761CF0B2A842F0D370BD10B501688A089300CC0801F012
:20498000030003F00403E20018430B0902F008021C01104304F010042043490940EA411025
:2049A000C0B210BD0268920841EA82028B0822F0040203F0010342EA8302CB0822F00802C3
:2049C00003F0010342EAC3020B0922F0F00203F0010342EA0312490942EA411202607047B5
:2049E00000F1200200F1100108F026BB2DE9F0475FEA000988B00D4601D0140001D10220C6
:204A00003FE02F1DB8B207F0ABFE060037D0FBF7A6FB80462A464946301D06F059FF4FEAE8
:204A2000182986F8038086F802904FEA184575704FEA186A86F800A0FBF78EFB01461022DC
:204A400003A806F045FF0820009001ABBAB2314603A800F084F807000DD184F8008084F8B6
:204A60000190A57084F803A0082201A9201D06F02FFFFBF778FB304607F0BAFE00E0132798
:204A8000384608B0BDE8F0872DE9F04F89B014001CBF129D002D0F46994616D08046FFF795
:204AA0004AFD060008BF142056D02978687801EB0020A97800EB0141E87801EB006AB06ADD
:204AC000504504D310F1010F01D0022044E027B13079810758BF01203ED50822002101A8FA
:204AE00005F09EFD09F10407B8B207F039FE5FEA000B08BF13202FD04A4621460BF1040045
:204B000006F0E6FE04222946584606F0E1FE102206F1180105A806F0DBFE0820009001AB91
:204B2000BAB2594605A800F01AF8040010D1082201A903A806F0CCFE0822291D03A805F087
:204B40009DFE012811BF012451464046FBF767FD584607F04DFE204609B0BDE8F08F2DE9F0
:204B6000F84F054686B00E46144600F0DEF8814600F0DBF8B9F1000F804608BF132700F0FF
:204B8000C180B8F1000F08BF132700F0B880019500F0CBF800F0C8F8BBF1000F054608BF2D
:204BA000132730D00DB913272AE01022002105F037FD01985A462946FFF716FF0746F8B984
:204BC0009BF80000010604D44946584600F0BAF806E02946584600F0B5F84A4600F09CF8F0
:204BE00099F80000010604D44146484600F0AAF806E02946484600F0A5F8424600F08CF832
:204C0000584607F0F5FD15B1284607F0F1FD002F75D100F08AF800F087F8BBF1000F054698
:204C200008BF132767D00DB9132761E0224602F10F00C11000EB11700003001402D1002446
:204C4000002109E0D10802EB11710909A2EB0113591E8941C90F441E200180B200963018A3
:204C600021B12A46494600F063F818E0D10802EB11710909A2EB01120021D2B202AB914201
:204C8000B8BF465C02DB0CBF802600265E54491C1029F4DB2A46414602A800F049F8102264
:204CA0000021584605F0BCFCDDF804A0002636B2A6420DDA67B90098310189B2014402AA1C
:204CC000584600F035F800F02BF80746761CEEE777B9109C069E02AA2946584600F028F809
:204CE00000F01EF8074622465946304605F09AFC584607F07DFD15B1284607F079FD48461B
:204D000007F076FDB8F1000F1CBF404607F070FD384607B0BDE8F08F0FF24001284607E0BC
:204D20005A4602A950465FE68346102007F018BD30B50023C45CCD5C6C40D4545B1C102BB1
:204D4000F8DB30BD10B500220F23C45C42EA4402CA54C25CD2095B1EF7D510BD00000000BF
:204D60000000000000000000000000872DE9F047DFF87877064638688A4690464FF00009BF
:204D8000002408B1112035E01D000DD02120FBF799F895F89C10814206D32220FBF792F89F
:204DA00095F89C10884201D2022023E0702007F0D7FC386008B913201CE07022002105F06E
:204DC0002FFC39684C7038680670386880F802A03868A0F806808566C46604711EB100F074
:204DE000DDF981464C463968012048700CB100F00CFB4846BDE8F08738B5DFF8F0562B680F
:204E0000002443B11A79022A18BF032A05D0042A18BF062A01D0122032BDDA888A4201D0BC
:204E2000022032BD0146102203F1080005F0FAFB286810212830FFF788FD286800F11802D3
:204E400000F12801083000F01EF929684A78087820B1032A0ED102224A7008E0042A02D182
:204E60000220487006E0032A04D10520487000F0ABF90446204632BDDFF870168860704764
:204E8000DFF8681648607047DFF860261268002A00D1704780B5D288824208BF012904D1BC
:204EA00000F0B3FABDE8014036E301BD1720D1E270B586B0044600208DF80000A0680578DF
:204EC000691E0A293BD8DFE801F006060F13171B1F23272B2F0001A900F0DBFE122826D186
:204EE00006218DF8001022E001A900F045FF1EE001A900F05DFF1AE001A900F070FF16E029
:204F000001A900F084FF12E001A900F09DFF0EE001A900F0C6FF0AE001A900F0CDFF06E0C9
:204F200001A900F0E0FF02E001A900F0F5FFE0B96088FFF700FB052628B9082613E00720C2
:204F40008DF8000014E0827CDFF8A015082A0CBF8968496800291CBF0B68002B03D001AA8F
:204F60002946984706468DF800609DF8000020B16088694600F007F803E00B2D18BFFFF7DE
:204F8000FFFB06B070BD38B50C46DFF864352246022100F0CFFF0546207800F05BFA2846A6
:204FA00032BD70B5DFF8444506462068002882B00D4640D0C188B1423DD14178062931D1B8
:204FC000017819B3816ED1F89830C26ED90705D5117BCD0702D5072242701DE0C3F340011C
:204FE00000291FBFD168C1F340010029092109D1C3F3800100291EBFD168C1F3800100297B
:2050000002D00B21417007E0A06800E0606800281EBF40680028804720684178122918D149
:20502000002005E0112906D1280018BF3225284600F010FA0DE0280007D13046FFF77BFACE
:2050400018B1017941F01001017131462846FBF7D8FC012076BD10B5DFF89044206888B129
:20506000007800280CBF6068A06800281EBF40680028804720684178122903D1BDE8104014
:205080000020E7E110BD2DE9F04FDFF860548DB0804628688946924608B9122041E0C088E5
:2050A000FFF749FA040008BF14203AD009A800F0FCF92968087878B109AA0192C86E0090D2
:2050C000FBF75EF8070018BF01270020FBF75BF865798346A61D0FE0C86E019004F1060BF7
:2050E00009A80090FBF74CF8050018BF01250020FBF749F867790646009807A900F072FD11
:20510000019805A900F06AFDCDF810A003960295CDF804B0009705AB07AA49464046FFF7D0
:2051200086FB0DB0BDE8F08F70B5DFF8C0530446686886B000281CBF006800280E461CD0DB
:2051400031788DF8041070788DF8050002A8B178FFF728FCF1786B688DF80C1001AA70684E
:20516000049001211D682046A847010005D08DF8000069466088FFF706FF06B070BD38B5E2
:20518000DFF86843A468002C1CBFA468002C03D0049D0095A04732BD022032BD1FB5D34C5F
:2051A000216871B1684600F080F92168C8880978002914BFCF4BD04B6A46072100F0BAFE22
:2051C00000E0012004B010BD1FB5C84C2368102203F11801684605F025FA2068C74B0AE055
:2051E0001FB5C24C2368102203F12801684605F019FA2068C24BC0886A46112100F09AFEF6
:2052000004B010BDF8B5B94F06463868C16E0024002940F0C680102007F0A2FA39680028EE
:20522000C86600F0BC808D6E1022314605F0FAF93A681078002840F08880D16ED5F898005A
:2052400011F80C7F00F0010307F00107BB4218BF0023400843EA4000C5F89800C0F34003D0
:205260000F68C7F34007BB4206BF430803F00103002320F0020040EA4300C5F89800C0F308
:2052800080030F68C7F38007BB4206BF830803F00103002320F0040040EA8300C5F8980056
:2052A000C0F3C0030F68C7F3C007BB4206BFC30803F00103002320F0080040EAC300C5F817
:2052C0009800C0F300230F68C7F30027BB4206BF030A03F00103002320F4807040EA0320CE
:2052E000C5F89800C0F340230F68C7F34027BB4206BF430A03F00103002320F4007040EAD4
:205300004320C5F89800C0F380230F68C7F38027BB4206BF830A03F00103002320F480604A
:2053200040EA8320C5F89800C0F3C0230968C1F3C0218B4206BFC10A01F00101002120F42A
:20534000006040EAC120C5F89800717800291CBF6878002802D00521117123E07068C0F390
:20536000800038B995F8950010F0040008BF012011D012D01078002819BF28783178297879
:2053800030780428D8BF042907DC0FF2B81301EB81011944085C107104E0182402E01324DD
:2053A00000E011242046F2BD0A46564B15E010B586B00446ADF800101046014608220DF11E
:2053C000020005F02FF9504B6A460B21204600F0B1FD06B010BD0A464C4B112100F0AABD40
:2053E0001CB58DF8001004461046014606220DF1010005F017F9464B6A460821204600F074
:2054000099FD13BD0A46434BE7E710B5374C2068E0B1C06E08B107F0EBF92068806D08B129
:2054200007F0E6F92068C06D08B107F0E1F92068006E08B107F0DCF92068406E08B107F0F6
:20544000D7F9206807F0D4F900202060BDE81040FFF7A4B925490968002900D1704700B503
:2054600085B04A6E03920A6E0292CA6D01928A6D0092CB78CA880978FBF74FFB05B05DF8EF
:2054800004EBC2E719490968102081B000291CBFCA6E002A07D0896E29B191F89C00117A82
:2054A000814238BF084601B0704770B505460F48006800281CBF846E002C0FD0207828701D
:2054C00004F1950660786870281D3178FFF76AFAF1792972D4F89800E86070BD2846BDE853
:2054E00070401022002105F09BB80000D4430020C75D0100DD5B0100E55B0100675D0100C6
:205500008F5D0100FD5D0100255E0100735E0100855E0100D55E010010B52620FAF7D2FC0B
:205520000446C0B268B1022007F01AF948B110210170002141700146E0B2BDE8104006F039
:20554000B9BF10BD01010201020101020102030304010301010101010303020103000000D9
:2055600080B5DFF8800501784A074CBFDFF878050020FFF785FC002002BDF0B589B00546D2
:205580000E46174610220021684605F049F8DFF85C45206800282AD0C188A94204BF017891
:2055A000002924D1417806290DD100F1480200F1280104AB0830FFF7A8F9C0B9FFF762FF64
:2055C000024604A924E0806D88B1028A112927D1974209D100F033F8012805D1FFF752FFDA
:2055E00002462068816D13E03220FFF733FF2846FEF7A1FF04001CBFE06A002819D0018AB8
:205600008F4216D100F01BF8012812D1E16A8A7E684605F007F86946284607F011FD0BE0C1
:205620009742E4D100F00BF80128E0D12068816DEDE7284607F008FD012009B0F0BD00F1E3
:2056400012010822304605F019B90000F0B5DFF89C640746306885B01546002488B9012950
:205660000ED1281DFFF786F9E9680291297A019100906B782A7879880020FBF7EBF900204C
:20568000E5E0C2887B889A4218BF0820F8D10278012A08BF0720F3D0491E092964D8DFE862
:2056A00001F00563142ED24C658C9EBC2846FFF7A9FD30B9DFF838040078042106F044FF0A
:2056C000C4E0182833D10324C0E010222946383004F0A8FF30684178042902D1032242704F
:2056E000B4E000F1180200F128010830FFF7CBFCFFF76AFD00B10824316805208BE0102267
:205700002946483004F08EFF306800F148016A460830FFF7B8FC306800F13801102268461B
:2057200005F0ACF8012806D1FFF75AFD00287CD1316806206FE0042488E041780C2913D19E
:20574000C06D20B91C2007F00BF83168C8653068C06D48B100F07DF8FFF794FE3168CA6DCC
:2057600090760D20316856E007246FE0C36D002BFAD040780D28F7D1298819820822A91C98
:2057800003F1120004F04EFF3168886ED0F89820C2F3402000281FBFC86EC068C0F3402027
:2057A000002818BF0E2036D1C2F38020002848D0C86EC068C0F380202BE041780E29D3D1D0
:2057C000006E20B9172006F0CBFF316808663068006E08B100F03DF831680F201BE0427823
:2057E0000F2AC1D1006E0622691C113004F01AFF30682978026E41F0020111743168886E84
:20580000D0F89820C2F38020D8B1C86EC268C2F38020B0B11020487018E0406E38B9142061
:2058200006F09EFF3168486608B908240EE03068406E30B100F00DF831684A6E4FF0FF30D8
:205840001061002000E02878FFF704FE204605B0F0BD1022294604F0E5BE10B582B0FFF752
:205860009DFC002842D1A14C2068816E91F89520D10709D5C16E0A7902F00302012A03D154
:20588000C17841F00101C17020680179022904D0032918BF04290AD10121C0880022FBF7E1
:2058A00008F900F024F804202168487013BD012918BF05291AD1022141702068017901298C
:2058C00005D110220021083004F0AAFE07E0816E1022891C083004F0A5FE00F008F810212E
:2058E0002068BDE81C402830FFF72FB813BD2068C17841F00401C170704700002DE9F041F4
:205900007A4D2B6882B01878002840F0E8805E78D3F86880DF6E062E2FD1D8F89810C8075A
